{
  "_format": "hh-sol-artifact-1",
  "contractName": "AirdropV1",
  "sourceName": "contracts/airdrop/AirdropV1.sol",
  "abi": [
    {
      "inputs": [
        {
          "internalType": "contract IERC20",
          "name": "_rewardToken",
          "type": "address"
        }
      ],
      "stateMutability": "nonpayable",
      "type": "constructor"
    },
    {
      "anonymous": false,
      "inputs": [
        {
          "indexed": true,
          "internalType": "address",
          "name": "previousOwner",
          "type": "address"
        },
        {
          "indexed": true,
          "internalType": "address",
          "name": "newOwner",
          "type": "address"
        }
      ],
      "name": "OwnershipTransferred",
      "type": "event"
    },
    {
      "anonymous": false,
      "inputs": [
        {
          "indexed": false,
          "internalType": "address",
          "name": "account",
          "type": "address"
        }
      ],
      "name": "Paused",
      "type": "event"
    },
    {
      "anonymous": false,
      "inputs": [
        {
          "indexed": false,
          "internalType": "address",
          "name": "account",
          "type": "address"
        }
      ],
      "name": "Unpaused",
      "type": "event"
    },
    {
      "inputs": [
        {
          "internalType": "uint256",
          "name": "index",
          "type": "uint256"
        },
        {
          "internalType": "bytes32[]",
          "name": "proof",
          "type": "bytes32[]"
        },
        {
          "internalType": "address",
          "name": "addr",
          "type": "address"
        },
        {
          "internalType": "uint256",
          "name": "amount",
          "type": "uint256"
        }
      ],
      "name": "claim",
      "outputs": [],
      "stateMutability": "nonpayable",
      "type": "function"
    },
    {
      "inputs": [
        {
          "internalType": "address",
          "name": "",
          "type": "address"
        },
        {
          "internalType": "uint256",
          "name": "",
          "type": "uint256"
        }
      ],
      "name": "isClaimed",
      "outputs": [
        {
          "internalType": "bool",
          "name": "",
          "type": "bool"
        }
      ],
      "stateMutability": "view",
      "type": "function"
    },
    {
      "inputs": [
        {
          "internalType": "uint256",
          "name": "",
          "type": "uint256"
        }
      ],
      "name": "maxClaimPerIndex",
      "outputs": [
        {
          "internalType": "uint256",
          "name": "",
          "type": "uint256"
        }
      ],
      "stateMutability": "view",
      "type": "function"
    },
    {
      "inputs": [],
      "name": "owner",
      "outputs": [
        {
          "internalType": "address",
          "name": "",
          "type": "address"
        }
      ],
      "stateMutability": "view",
      "type": "function"
    },
    {
      "inputs": [],
      "name": "pause",
      "outputs": [],
      "stateMutability": "nonpayable",
      "type": "function"
    },
    {
      "inputs": [],
      "name": "paused",
      "outputs": [
        {
          "internalType": "bool",
          "name": "",
          "type": "bool"
        }
      ],
      "stateMutability": "view",
      "type": "function"
    },
    {
      "inputs": [],
      "name": "renounceOwnership",
      "outputs": [],
      "stateMutability": "nonpayable",
      "type": "function"
    },
    {
      "inputs": [],
      "name": "rewardToken",
      "outputs": [
        {
          "internalType": "contract IERC20",
          "name": "",
          "type": "address"
        }
      ],
      "stateMutability": "view",
      "type": "function"
    },
    {
      "inputs": [
        {
          "internalType": "uint256",
          "name": "index",
          "type": "uint256"
        },
        {
          "internalType": "uint256",
          "name": "max",
          "type": "uint256"
        }
      ],
      "name": "setMaxClaimPerIndex",
      "outputs": [],
      "stateMutability": "nonpayable",
      "type": "function"
    },
    {
      "inputs": [
        {
          "internalType": "contract IERC20",
          "name": "_rewardToken",
          "type": "address"
        }
      ],
      "name": "setRewardToken",
      "outputs": [],
      "stateMutability": "nonpayable",
      "type": "function"
    },
    {
      "inputs": [
        {
          "internalType": "uint256",
          "name": "index",
          "type": "uint256"
        },
        {
          "internalType": "bytes32",
          "name": "_root",
          "type": "bytes32"
        }
      ],
      "name": "setRoot",
      "outputs": [],
      "stateMutability": "nonpayable",
      "type": "function"
    },
    {
      "inputs": [
        {
          "internalType": "uint256",
          "name": "",
          "type": "uint256"
        }
      ],
      "name": "totalClaim",
      "outputs": [
        {
          "internalType": "uint256",
          "name": "",
          "type": "uint256"
        }
      ],
      "stateMutability": "view",
      "type": "function"
    },
    {
      "inputs": [
        {
          "internalType": "address",
          "name": "newOwner",
          "type": "address"
        }
      ],
      "name": "transferOwnership",
      "outputs": [],
      "stateMutability": "nonpayable",
      "type": "function"
    },
    {
      "inputs": [],
      "name": "unPause",
      "outputs": [],
      "stateMutability": "nonpayable",
      "type": "function"
    },
    {
      "inputs": [
        {
          "internalType": "contract IERC20",
          "name": "_token",
          "type": "address"
        },
        {
          "internalType": "uint256",
          "name": "amount",
          "type": "uint256"
        }
      ],
      "name": "withdraw",
      "outputs": [],
      "stateMutability": "nonpayable",
      "type": "function"
    }
  ],
  "bytecode": "0x608060405234801561001057600080fd5b50604051610f3d380380610f3d83398101604081905261002f9161009d565b600080546001600160a01b0319163390811782556040519091907f8be0079c531659141344cd1fd0a4f28419497f9722a3daafe3b4186f6b6457e0908290a36002805460ff19169055600680546001600160a01b0319166001600160a01b03929092169190911790556100cd565b6000602082840312156100af57600080fd5b81516001600160a01b03811681146100c657600080fd5b9392505050565b610e61806100dc6000396000f3fe608060405234801561001057600080fd5b50600436106100f55760003560e01c80638456cb5911610097578063f2fde38b11610066578063f2fde38b14610219578063f3fef3a31461022c578063f7b188a51461023f578063f7c618c11461024757600080fd5b80638456cb59146101b95780638aee8127146101c15780638da5cb5b146101d4578063efcb17aa146101f957600080fd5b8063562beba8116100d3578063562beba8146101355780635c975abb14610178578063715018a6146101835780637cb4573a1461018b57600080fd5b8063048f06f2146100fa5780632368a3841461010f578063377a2eb714610122575b600080fd5b61010d610108366004610bd6565b61025a565b005b61010d61011d366004610bd6565b6102a3565b61010d610130366004610c0d565b6102df565b610163610143366004610ca7565b600560209081526000928352604080842090915290825290205460ff1681565b60405190151581526020015b60405180910390f35b60025460ff16610163565b61010d61041d565b6101ab610199366004610cd3565b60046020526000908152604090205481565b60405190815260200161016f565b61010d610491565b61010d6101cf366004610cec565b6104cd565b6000546001600160a01b03165b6040516001600160a01b03909116815260200161016f565b6101ab610207366004610cd3565b60036020526000908152604090205481565b61010d610227366004610cec565b610519565b61010d61023a366004610ca7565b61054f565b61010d61058d565b6006546101e1906001600160a01b031681565b6000546001600160a01b0316331461028d5760405162461bcd60e51b815260040161028490610d09565b60405180910390fd5b60009182526001602052604090912055565b5050565b6000546001600160a01b031633146102cd5760405162461bcd60e51b815260040161028490610d09565b60009182526003602052604090912055565b6102e76105c7565b6102f4858585858561060d565b60008581526003602052604090205415610357576000858152600360205260409020548111156103575760405162461bcd60e51b815260206004820152600e60248201526d125b9d985b1a5908185b5bdd5b9d60921b6044820152606401610284565b6001600160a01b038216600090815260056020908152604080832088845290915290205460ff16156103b55760405162461bcd60e51b815260206004820152600760248201526610db185a5b595960ca1b6044820152606401610284565b6006546103cc906001600160a01b031683836106f0565b6001600160a01b03821660009081526005602090815260408083208884528252808320805460ff19166001179055600490915281208054839290610411908490610d54565b90915550505050505050565b6000546001600160a01b031633146104475760405162461bcd60e51b815260040161028490610d09565b600080546040516001600160a01b03909116907f8be0079c531659141344cd1fd0a4f28419497f9722a3daafe3b4186f6b6457e0908390a3600080546001600160a01b0319169055565b6000546001600160a01b031633146104bb5760405162461bcd60e51b815260040161028490610d09565b6104c36105c7565b6104cb610747565b565b6000546001600160a01b031633146104f75760405162461bcd60e51b815260040161028490610d09565b600680546001600160a01b0319166001600160a01b0392909216919091179055565b6000546001600160a01b031633146105435760405162461bcd60e51b815260040161028490610d09565b61054c81610792565b50565b6000546001600160a01b031633146105795760405162461bcd60e51b815260040161028490610d09565b61029f6001600160a01b03831633836106f0565b6000546001600160a01b031633146105b75760405162461bcd60e51b815260040161028490610d09565b6105bf610852565b6104cb61089b565b60025460ff16156104cb5760405162461bcd60e51b815260206004820152601060248201526f14185d5cd8589b194e881c185d5cd95960821b6044820152606401610284565b604080516001600160a01b038416602082015290810182905260009060600160408051601f19818403018152828252805160209182012090830152016040516020818303038152906040528051906020012090506106ac85858080602002602001604051908101604052809392919081815260200183836020028082843760009201829052508b81526001602052604090205492508591506108dd9050565b6106e85760405162461bcd60e51b815260206004820152600d60248201526c24b73b30b634b210383937b7b360991b6044820152606401610284565b505050505050565b604080516001600160a01b038416602482015260448082018490528251808303909101815260649091019091526020810180516001600160e01b031663a9059cbb60e01b1790526107429084906108f3565b505050565b61074f6105c7565b6002805460ff191660011790556040513381527f62e78cea01bee320cd4e420270b5ea74000d11b0c9f74754ebdbfc544b05a258906020015b60405180910390a1565b6001600160a01b0381166107f75760405162461bcd60e51b815260206004820152602660248201527f4f776e61626c653a206e6577206f776e657220697320746865207a65726f206160448201526564647265737360d01b6064820152608401610284565b600080546040516001600160a01b03808516939216917f8be0079c531659141344cd1fd0a4f28419497f9722a3daafe3b4186f6b6457e091a3600080546001600160a01b0319166001600160a01b0392909216919091179055565b60025460ff166104cb5760405162461bcd60e51b815260206004820152601460248201527314185d5cd8589b194e881b9bdd081c185d5cd95960621b6044820152606401610284565b6108a3610852565b6002805460ff191690556040513381527f5db9ee0a495bf2e6ff9c91a7834c1ba4fdd244a5e8aa4e537bd38aeae4b073aa90602001610788565b6000826108ea85846109c5565b14949350505050565b6000610948826040518060400160405280602081526020017f5361666545524332303a206c6f772d6c6576656c2063616c6c206661696c6564815250856001600160a01b0316610a149092919063ffffffff16565b80519091501561074257808060200190518101906109669190610d67565b6107425760405162461bcd60e51b815260206004820152602a60248201527f5361666545524332303a204552433230206f7065726174696f6e20646964206e6044820152691bdd081cdd58d8d9595960b21b6064820152608401610284565b600081815b8451811015610a0a576109f6828683815181106109e9576109e9610d89565b6020026020010151610a2b565b915080610a0281610d9f565b9150506109ca565b5090505b92915050565b6060610a238484600085610a5d565b949350505050565b6000818310610a47576000828152602084905260409020610a56565b60008381526020839052604090205b9392505050565b606082471015610abe5760405162461bcd60e51b815260206004820152602660248201527f416464726573733a20696e73756666696369656e742062616c616e636520666f6044820152651c8818d85b1b60d21b6064820152608401610284565b600080866001600160a01b03168587604051610ada9190610ddc565b60006040518083038185875af1925050503d8060008114610b17576040519150601f19603f3d011682016040523d82523d6000602084013e610b1c565b606091505b5091509150610b2d87838387610b38565b979650505050505050565b60608315610ba7578251600003610ba0576001600160a01b0385163b610ba05760405162461bcd60e51b815260206004820152601d60248201527f416464726573733a2063616c6c20746f206e6f6e2d636f6e74726163740000006044820152606401610284565b5081610a23565b610a238383815115610bbc5781518083602001fd5b8060405162461bcd60e51b81526004016102849190610df8565b60008060408385031215610be957600080fd5b50508035926020909101359150565b6001600160a01b038116811461054c57600080fd5b600080600080600060808688031215610c2557600080fd5b85359450602086013567ffffffffffffffff80821115610c4457600080fd5b818801915088601f830112610c5857600080fd5b813581811115610c6757600080fd5b8960208260051b8501011115610c7c57600080fd5b6020830196508095505050506040860135610c9681610bf8565b949793965091946060013592915050565b60008060408385031215610cba57600080fd5b8235610cc581610bf8565b946020939093013593505050565b600060208284031215610ce557600080fd5b5035919050565b600060208284031215610cfe57600080fd5b8135610a5681610bf8565b6020808252818101527f4f776e61626c653a2063616c6c6572206973206e6f7420746865206f776e6572604082015260600190565b634e487b7160e01b600052601160045260246000fd5b80820180821115610a0e57610a0e610d3e565b600060208284031215610d7957600080fd5b81518015158114610a5657600080fd5b634e487b7160e01b600052603260045260246000fd5b600060018201610db157610db1610d3e565b5060010190565b60005b83811015610dd3578181015183820152602001610dbb565b50506000910152565b60008251610dee818460208701610db8565b9190910192915050565b6020815260008251806020840152610e17816040850160208701610db8565b601f01601f1916919091016040019291505056fea264697066735822122082c3c4f7b211241f03e10f5afeef9019449dd9c915e32c0bb388e3963fcad94b64736f6c63430008130033",
  "linkReferences": {},
  "deployedLinkReferences": {}
}