{
  "_format": "hh-sol-artifact-1",
  "contractName": "RewardContract",
  "sourceName": "contracts/Reward.sol",
  "abi": [
    {
      "inputs": [
        {
          "internalType": "contract IERC20",
          "name": "_rewardToken",
          "type": "address"
        }
      ],
      "stateMutability": "nonpayable",
      "type": "constructor"
    },
    {
      "anonymous": false,
      "inputs": [
        {
          "indexed": true,
          "internalType": "address",
          "name": "previousOwner",
          "type": "address"
        },
        {
          "indexed": true,
          "internalType": "address",
          "name": "newOwner",
          "type": "address"
        }
      ],
      "name": "OwnershipTransferred",
      "type": "event"
    },
    {
      "anonymous": false,
      "inputs": [
        {
          "indexed": true,
          "internalType": "address",
          "name": "user",
          "type": "address"
        },
        {
          "indexed": true,
          "internalType": "bytes32",
          "name": "txHash",
          "type": "bytes32"
        },
        {
          "indexed": false,
          "internalType": "uint256",
          "name": "index",
          "type": "uint256"
        }
      ],
      "name": "RequestDiscount",
      "type": "event"
    },
    {
      "inputs": [],
      "name": "claim",
      "outputs": [],
      "stateMutability": "nonpayable",
      "type": "function"
    },
    {
      "inputs": [
        {
          "internalType": "address",
          "name": "user",
          "type": "address"
        }
      ],
      "name": "claimable",
      "outputs": [
        {
          "internalType": "uint256",
          "name": "",
          "type": "uint256"
        }
      ],
      "stateMutability": "view",
      "type": "function"
    },
    {
      "inputs": [],
      "name": "index",
      "outputs": [
        {
          "internalType": "uint256",
          "name": "",
          "type": "uint256"
        }
      ],
      "stateMutability": "view",
      "type": "function"
    },
    {
      "inputs": [
        {
          "internalType": "bytes32[]",
          "name": "listTx",
          "type": "bytes32[]"
        }
      ],
      "name": "isConfirmedTxHashBatch",
      "outputs": [
        {
          "internalType": "bool[]",
          "name": "",
          "type": "bool[]"
        }
      ],
      "stateMutability": "view",
      "type": "function"
    },
    {
      "inputs": [],
      "name": "owner",
      "outputs": [
        {
          "internalType": "address",
          "name": "",
          "type": "address"
        }
      ],
      "stateMutability": "view",
      "type": "function"
    },
    {
      "inputs": [],
      "name": "renounceOwnership",
      "outputs": [],
      "stateMutability": "nonpayable",
      "type": "function"
    },
    {
      "inputs": [
        {
          "internalType": "bytes32[]",
          "name": "_txHash",
          "type": "bytes32[]"
        }
      ],
      "name": "requestDiscount",
      "outputs": [],
      "stateMutability": "nonpayable",
      "type": "function"
    },
    {
      "inputs": [],
      "name": "rewardToken",
      "outputs": [
        {
          "internalType": "contract IERC20",
          "name": "",
          "type": "address"
        }
      ],
      "stateMutability": "view",
      "type": "function"
    },
    {
      "inputs": [
        {
          "components": [
            {
              "internalType": "bytes32",
              "name": "txHash",
              "type": "bytes32"
            },
            {
              "internalType": "address",
              "name": "user",
              "type": "address"
            },
            {
              "internalType": "uint256",
              "name": "reward",
              "type": "uint256"
            },
            {
              "internalType": "uint256",
              "name": "vesting",
              "type": "uint256"
            }
          ],
          "internalType": "struct RewardContract.RewardSet",
          "name": "rewardSet",
          "type": "tuple"
        }
      ],
      "name": "setReward",
      "outputs": [],
      "stateMutability": "nonpayable",
      "type": "function"
    },
    {
      "inputs": [
        {
          "components": [
            {
              "internalType": "bytes32",
              "name": "txHash",
              "type": "bytes32"
            },
            {
              "internalType": "address",
              "name": "user",
              "type": "address"
            },
            {
              "internalType": "uint256",
              "name": "reward",
              "type": "uint256"
            },
            {
              "internalType": "uint256",
              "name": "vesting",
              "type": "uint256"
            }
          ],
          "internalType": "struct RewardContract.RewardSet[]",
          "name": "rewardSets",
          "type": "tuple[]"
        },
        {
          "internalType": "uint256",
          "name": "_index",
          "type": "uint256"
        }
      ],
      "name": "setRewardBatch",
      "outputs": [],
      "stateMutability": "nonpayable",
      "type": "function"
    },
    {
      "inputs": [
        {
          "internalType": "address",
          "name": "",
          "type": "address"
        }
      ],
      "name": "totalReward",
      "outputs": [
        {
          "internalType": "uint256",
          "name": "",
          "type": "uint256"
        }
      ],
      "stateMutability": "view",
      "type": "function"
    },
    {
      "inputs": [
        {
          "internalType": "address",
          "name": "newOwner",
          "type": "address"
        }
      ],
      "name": "transferOwnership",
      "outputs": [],
      "stateMutability": "nonpayable",
      "type": "function"
    },
    {
      "inputs": [
        {
          "internalType": "address",
          "name": "",
          "type": "address"
        }
      ],
      "name": "userReward",
      "outputs": [
        {
          "internalType": "uint256",
          "name": "payout",
          "type": "uint256"
        },
        {
          "internalType": "uint256",
          "name": "vesting",
          "type": "uint256"
        },
        {
          "internalType": "uint256",
          "name": "lastBlock",
          "type": "uint256"
        }
      ],
      "stateMutability": "view",
      "type": "function"
    }
  ],
  "bytecode": "0x608060405234801561001057600080fd5b5060405161124238038061124283398101604081905261002f91610093565b600080546001600160a01b0319163390811782556040519091907f8be0079c531659141344cd1fd0a4f28419497f9722a3daafe3b4186f6b6457e0908290a3600780546001600160a01b0319166001600160a01b03929092169190911790556100c3565b6000602082840312156100a557600080fd5b81516001600160a01b03811681146100bc57600080fd5b9392505050565b611170806100d26000396000f3fe608060405234801561001057600080fd5b50600436106100ce5760003560e01c80634e71d92d1161008c5780638da5cb5b116100665780638da5cb5b146101b757806399908f74146101dc578063f2fde38b146101fc578063f7c618c11461020f57600080fd5b80634e71d92d14610187578063715018a61461018f578063750ee0a91461019757600080fd5b80620a74be146100d35780630eb998421461012257806319a239da146101375780632986c0e51461014a57806329e3e09714610161578063402914f514610174575b600080fd5b6101026100e1366004610d74565b60056020526000908152604090208054600182015460029092015490919083565b604080519384526020840192909252908201526060015b60405180910390f35b610135610130366004610da4565b610222565b005b610135610145366004610dbc565b61040b565b61015360065481565b604051908152602001610119565b61013561016f366004610e37565b61048b565b610153610182366004610d74565b610637565b6101356106d9565b61013561088b565b6101aa6101a5366004610ec2565b6108ff565b6040516101199190610f80565b6000546001600160a01b03165b6040516001600160a01b039091168152602001610119565b6101536101ea366004610d74565b60046020526000908152604090205481565b61013561020a366004610d74565b6109ca565b6007546101c4906001600160a01b031681565b6000546001600160a01b031633146102555760405162461bcd60e51b815260040161024c90610fc6565b60405180910390fd5b803560009081526002602052604090205460ff16156102a95760405162461bcd60e51b815260206004820152601060248201526f086dedcccd2e4dacac840a8f090c2e6d60831b604482015260640161024c565b803560009081526001602052604090205460ff166103005760405162461bcd60e51b815260206004820152601460248201527309cdee840e4cae2eacae6e8cac840a8f090c2e6d60631b604482015260640161024c565b60006005816103156040850160208601610d74565b6001600160a01b03166001600160a01b031681526020019081526020016000206040518060600160405290816000820154815260200160018201548152602001600282015481525050905060405180606001604052808260000151846040013561037f9190611011565b8152602001826020015184606001356103989190611011565b815260200142815250600560008460200160208101906103b89190610d74565b6001600160a01b03168152602080820192909252604090810160009081208451815584840151600180830191909155948301516002918201559535815294909152909220805460ff191690921790915550565b6000546001600160a01b031633146104355760405162461bcd60e51b815260040161024c90610fc6565b600354811061044357600080fd5b600681905560005b82811015610485576104738484838181106104685761046861102a565b905060800201610222565b8061047d81611040565b91505061044b565b50505050565b60005b818110156105b457600160008484848181106104ac576104ac61102a565b602090810292909201358352508101919091526040016000205460ff166105a25760038383838181106104e1576104e161102a565b8354600181810186556000958652602080872093029490940135910155509081908585858181106105145761051461102a565b90506020020135815260200190815260200160002060006101000a81548160ff0219169083151502179055508282828181106105525761055261102a565b90506020020135336001600160a01b03167f2213b00378693df3858f19dce6917fe8950ef26e9151de5f10cd4e07f477347560038054905060405161059991815260200190565b60405180910390a35b806105ac81611040565b91505061048e565b50336000908152600560209081526040808320815160608101835281548082526001830154948201949094526002909101549181019190915291036106325760408051606081018252600180825260208083018281524284860190815233600090815260059093529490912092518355519082015590516002909101555b505050565b6001600160a01b038116600090815260056020908152604080832081516060810183528154815260018201549381018490526002909101549181018290529183916106829042611059565b61069090633b9aca0061106c565b61069a9190611083565b9050633b9aca0081106106af57505192915050565b6000633b9aca008284600001516106c6919061106c565b6106d09190611083565b95945050505050565b336000908152600560209081526040808320815160608101835281548152600182015493810184905260029091015491810182905292919061071b9042611059565b61072990633b9aca0061106c565b6107339190611083565b9050633b9aca0081106107c357604080516060810182526001808252602080830182815242848601908152336000908152600584528681209551865591519385019390935591516002909301929092558451600490925291822080549192909161079e908490611011565b909155505081516007546107bf916001600160a01b03909116903390610a00565b5050565b6000633b9aca008284600001516107da919061106c565b6107e49190611083565b905060405180606001604052808285600001516108019190611059565b8152602001428560400151866020015161081b9190611011565b6108259190611059565b81524260209182015233600090815260058252604080822084518155848401516001820155938101516002909401939093556004909152908120805483929061086f908490611011565b9091555050600754610632906001600160a01b03163383610a00565b6000546001600160a01b031633146108b55760405162461bcd60e51b815260040161024c90610fc6565b600080546040516001600160a01b03909116907f8be0079c531659141344cd1fd0a4f28419497f9722a3daafe3b4186f6b6457e0908390a3600080546001600160a01b0319169055565b60606000825167ffffffffffffffff81111561091d5761091d610eac565b604051908082528060200260200182016040528015610946578160200160208202803683370190505b50905060005b83518110156109c3576002600085838151811061096b5761096b61102a565b6020026020010151815260200190815260200160002060009054906101000a900460ff168282815181106109a1576109a161102a565b91151560209283029190910190910152806109bb81611040565b91505061094c565b5092915050565b6000546001600160a01b031633146109f45760405162461bcd60e51b815260040161024c90610fc6565b6109fd81610a52565b50565b604080516001600160a01b038416602482015260448082018490528251808303909101815260649091019091526020810180516001600160e01b031663a9059cbb60e01b179052610632908490610b12565b6001600160a01b038116610ab75760405162461bcd60e51b815260206004820152602660248201527f4f776e61626c653a206e6577206f776e657220697320746865207a65726f206160448201526564647265737360d01b606482015260840161024c565b600080546040516001600160a01b03808516939216917f8be0079c531659141344cd1fd0a4f28419497f9722a3daafe3b4186f6b6457e091a3600080546001600160a01b0319166001600160a01b0392909216919091179055565b6000610b67826040518060400160405280602081526020017f5361666545524332303a206c6f772d6c6576656c2063616c6c206661696c6564815250856001600160a01b0316610be49092919063ffffffff16565b8051909150156106325780806020019051810190610b8591906110a5565b6106325760405162461bcd60e51b815260206004820152602a60248201527f5361666545524332303a204552433230206f7065726174696f6e20646964206e6044820152691bdd081cdd58d8d9595960b21b606482015260840161024c565b6060610bf38484600085610bfb565b949350505050565b606082471015610c5c5760405162461bcd60e51b815260206004820152602660248201527f416464726573733a20696e73756666696369656e742062616c616e636520666f6044820152651c8818d85b1b60d21b606482015260840161024c565b600080866001600160a01b03168587604051610c7891906110eb565b60006040518083038185875af1925050503d8060008114610cb5576040519150601f19603f3d011682016040523d82523d6000602084013e610cba565b606091505b5091509150610ccb87838387610cd6565b979650505050505050565b60608315610d45578251600003610d3e576001600160a01b0385163b610d3e5760405162461bcd60e51b815260206004820152601d60248201527f416464726573733a2063616c6c20746f206e6f6e2d636f6e7472616374000000604482015260640161024c565b5081610bf3565b610bf38383815115610d5a5781518083602001fd5b8060405162461bcd60e51b815260040161024c9190611107565b600060208284031215610d8657600080fd5b81356001600160a01b0381168114610d9d57600080fd5b9392505050565b600060808284031215610db657600080fd5b50919050565b600080600060408486031215610dd157600080fd5b833567ffffffffffffffff80821115610de957600080fd5b818601915086601f830112610dfd57600080fd5b813581811115610e0c57600080fd5b8760208260071b8501011115610e2157600080fd5b6020928301989097509590910135949350505050565b60008060208385031215610e4a57600080fd5b823567ffffffffffffffff80821115610e6257600080fd5b818501915085601f830112610e7657600080fd5b813581811115610e8557600080fd5b8660208260051b8501011115610e9a57600080fd5b60209290920196919550909350505050565b634e487b7160e01b600052604160045260246000fd5b60006020808385031215610ed557600080fd5b823567ffffffffffffffff80821115610eed57600080fd5b818501915085601f830112610f0157600080fd5b813581811115610f1357610f13610eac565b8060051b604051601f19603f83011681018181108582111715610f3857610f38610eac565b604052918252848201925083810185019188831115610f5657600080fd5b938501935b82851015610f7457843584529385019392850192610f5b565b98975050505050505050565b6020808252825182820181905260009190848201906040850190845b81811015610fba578351151583529284019291840191600101610f9c565b50909695505050505050565b6020808252818101527f4f776e61626c653a2063616c6c6572206973206e6f7420746865206f776e6572604082015260600190565b634e487b7160e01b600052601160045260246000fd5b8082018082111561102457611024610ffb565b92915050565b634e487b7160e01b600052603260045260246000fd5b60006001820161105257611052610ffb565b5060010190565b8181038181111561102457611024610ffb565b808202811582820484141761102457611024610ffb565b6000826110a057634e487b7160e01b600052601260045260246000fd5b500490565b6000602082840312156110b757600080fd5b81518015158114610d9d57600080fd5b60005b838110156110e25781810151838201526020016110ca565b50506000910152565b600082516110fd8184602087016110c7565b9190910192915050565b60208152600082518060208401526111268160408501602087016110c7565b601f01601f1916919091016040019291505056fea2646970667358221220defa13e687b0a685088588ed3bf1c7fc05feff4ef80937e4a486e1b7c42bc58364736f6c63430008130033",
  "linkReferences": {},
  "deployedLinkReferences": {}
}